{
  "_format": "hh-sol-artifact-1",
  "contractName": "Blocksafe",
  "sourceName": "contracts/Block-safe.sol",
  "abi": [
    {
      "inputs": [
        {
          "internalType": "string",
          "name": "_serialNumber",
          "type": "string"
        },
        {
          "internalType": "string",
          "name": "_actor",
          "type": "string"
        },
        {
          "internalType": "string",
          "name": "_location",
          "type": "string"
        },
        {
          "internalType": "string",
          "name": "_timestamp",
          "type": "string"
        },
        {
          "internalType": "bool",
          "name": "_isSold",
          "type": "bool"
        }
      ],
      "name": "addProductHistory",
      "outputs": [],
      "stateMutability": "nonpayable",
      "type": "function"
    },
    {
      "inputs": [
        {
          "internalType": "string",
          "name": "_serialNumber",
          "type": "string"
        }
      ],
      "name": "getProduct",
      "outputs": [
        {
          "internalType": "string",
          "name": "",
          "type": "string"
        },
        {
          "internalType": "string",
          "name": "",
          "type": "string"
        },
        {
          "internalType": "string",
          "name": "",
          "type": "string"
        },
        {
          "internalType": "string",
          "name": "",
          "type": "string"
        },
        {
          "internalType": "string",
          "name": "",
          "type": "string"
        },
        {
          "components": [
            {
              "internalType": "uint256",
              "name": "id",
              "type": "uint256"
            },
            {
              "internalType": "string",
              "name": "actor",
              "type": "string"
            },
            {
              "internalType": "string",
              "name": "location",
              "type": "string"
            },
            {
              "internalType": "string",
              "name": "timestamp",
              "type": "string"
            },
            {
              "internalType": "bool",
              "name": "isSold",
              "type": "bool"
            }
          ],
          "internalType": "struct Blocksafe.ProductHistory[]",
          "name": "",
          "type": "tuple[]"
        }
      ],
      "stateMutability": "view",
      "type": "function"
    },
    {
      "inputs": [],
      "name": "owner",
      "outputs": [
        {
          "internalType": "address",
          "name": "",
          "type": "address"
        }
      ],
      "stateMutability": "view",
      "type": "function"
    },
    {
      "inputs": [
        {
          "internalType": "string",
          "name": "_name",
          "type": "string"
        },
        {
          "internalType": "string",
          "name": "_brand",
          "type": "string"
        },
        {
          "internalType": "string",
          "name": "_serialNumber",
          "type": "string"
        },
        {
          "internalType": "string",
          "name": "_description",
          "type": "string"
        },
        {
          "internalType": "string",
          "name": "_image",
          "type": "string"
        },
        {
          "internalType": "string",
          "name": "_actor",
          "type": "string"
        },
        {
          "internalType": "string",
          "name": "_location",
          "type": "string"
        },
        {
          "internalType": "string",
          "name": "_timestamp",
          "type": "string"
        }
      ],
      "name": "registerProduct",
      "outputs": [],
      "stateMutability": "nonpayable",
      "type": "function"
    }
  ],
  "bytecode": "0x608060405234801561001057600080fd5b50611500806100206000396000f3fe608060405234801561001057600080fd5b506004361061004c5760003560e01c80633e2357e31461005157806368111cce1461006d5780638da5cb5b146100a2578063b4b33ef5146100c0575b600080fd5b61006b60048036038101906100669190610a9f565b6100dc565b005b61008760048036038101906100829190610c35565b61017b565b60405161009996959493929190610ec1565b60405180910390f35b6100aa6107f7565b6040516100b79190610f8d565b60405180910390f35b6100da60048036038101906100d59190610fd4565b61081b565b005b60006001876040516100ee91906110fb565b908152602001604051809103902090508881600001908161010f919061131e565b5087816003019081610121919061131e565b5086816001019081610133919061131e565b5085816002019081610145919061131e565b5084816004019081610157919061131e565b506000816006018190555061017087858585600061081b565b505050505050505050565b606080606080606080600060018860405161019691906110fb565b90815260200160405180910390206006015467ffffffffffffffff8111156101c1576101c0610974565b5b6040519080825280602002602001820160405280156101fa57816020015b6101e7610914565b8152602001906001900390816101df5790505b50905060005b60018960405161021091906110fb565b90815260200160405180910390206006015481101561047e5760018960405161023991906110fb565b90815260200160405180910390206005016000600183610259919061141f565b81526020019081526020016000206040518060a00160405290816000820154815260200160018201805461028c90611141565b80601f01602080910402602001604051908101604052809291908181526020018280546102b890611141565b80156103055780601f106102da57610100808354040283529160200191610305565b820191906000526020600020905b8154815290600101906020018083116102e857829003601f168201915b5050505050815260200160028201805461031e90611141565b80601f016020809104026020016040519081016040528092919081815260200182805461034a90611141565b80156103975780601f1061036c57610100808354040283529160200191610397565b820191906000526020600020905b81548152906001019060200180831161037a57829003601f168201915b505050505081526020016003820180546103b090611141565b80601f01602080910402602001604051908101604052809291908181526020018280546103dc90611141565b80156104295780601f106103fe57610100808354040283529160200191610429565b820191906000526020600020905b81548152906001019060200180831161040c57829003601f168201915b505050505081526020016004820160009054906101000a900460ff1615151515815250508282815181106104605761045f611453565b5b6020026020010181905250808061047690611482565b915050610200565b5060018860405161048f91906110fb565b90815260200160405180910390206001016001896040516104b091906110fb565b908152602001604051809103902060000160018a6040516104d191906110fb565b908152602001604051809103902060030160018b6040516104f291906110fb565b908152602001604051809103902060020160018c60405161051391906110fb565b90815260200160405180910390206004018585805461053190611141565b80601f016020809104026020016040519081016040528092919081815260200182805461055d90611141565b80156105aa5780601f1061057f576101008083540402835291602001916105aa565b820191906000526020600020905b81548152906001019060200180831161058d57829003601f168201915b505050505095508480546105bd90611141565b80601f01602080910402602001604051908101604052809291908181526020018280546105e990611141565b80156106365780601f1061060b57610100808354040283529160200191610636565b820191906000526020600020905b81548152906001019060200180831161061957829003601f168201915b5050505050945083805461064990611141565b80601f016020809104026020016040519081016040528092919081815260200182805461067590611141565b80156106c25780601f10610697576101008083540402835291602001916106c2565b820191906000526020600020905b8154815290600101906020018083116106a557829003601f168201915b505050505093508280546106d590611141565b80601f016020809104026020016040519081016040528092919081815260200182805461070190611141565b801561074e5780601f106107235761010080835404028352916020019161074e565b820191906000526020600020905b81548152906001019060200180831161073157829003601f168201915b5050505050925081805461076190611141565b80601f016020809104026020016040519081016040528092919081815260200182805461078d90611141565b80156107da5780601f106107af576101008083540402835291602001916107da565b820191906000526020600020905b8154815290600101906020018083116107bd57829003601f168201915b505050505091509650965096509650965096505091939550919395565b60008054906101000a900473ffffffffffffffffffffffffffffffffffffffff1681565b600060018660405161082d91906110fb565b9081526020016040518091039020905080600601600081548092919061085290611482565b91905055506040518060a0016040528082600601548152602001868152602001858152602001848152602001831515815250816005016000836006015481526020019081526020016000206000820151816000015560208201518160010190816108bc919061131e565b5060408201518160020190816108d2919061131e565b5060608201518160030190816108e8919061131e565b5060808201518160040160006101000a81548160ff021916908315150217905550905050505050505050565b6040518060a00160405280600081526020016060815260200160608152602001606081526020016000151581525090565b6000604051905090565b600080fd5b600080fd5b600080fd5b600080fd5b6000601f19601f8301169050919050565b7f4e487b7100000000000000000000000000000000000000000000000000000000600052604160045260246000fd5b6109ac82610963565b810181811067ffffffffffffffff821117156109cb576109ca610974565b5b80604052505050565b60006109de610945565b90506109ea82826109a3565b919050565b600067ffffffffffffffff821115610a0a57610a09610974565b5b610a1382610963565b9050602081019050919050565b82818337600083830152505050565b6000610a42610a3d846109ef565b6109d4565b905082815260208101848484011115610a5e57610a5d61095e565b5b610a69848285610a20565b509392505050565b600082601f830112610a8657610a85610959565b5b8135610a96848260208601610a2f565b91505092915050565b600080600080600080600080610100898b031215610ac057610abf61094f565b5b600089013567ffffffffffffffff811115610ade57610add610954565b5b610aea8b828c01610a71565b985050602089013567ffffffffffffffff811115610b0b57610b0a610954565b5b610b178b828c01610a71565b975050604089013567ffffffffffffffff811115610b3857610b37610954565b5b610b448b828c01610a71565b965050606089013567ffffffffffffffff811115610b6557610b64610954565b5b610b718b828c01610a71565b955050608089013567ffffffffffffffff811115610b9257610b91610954565b5b610b9e8b828c01610a71565b94505060a089013567ffffffffffffffff811115610bbf57610bbe610954565b5b610bcb8b828c01610a71565b93505060c089013567ffffffffffffffff811115610bec57610beb610954565b5b610bf88b828c01610a71565b92505060e089013567ffffffffffffffff811115610c1957610c18610954565b5b610c258b828c01610a71565b9150509295985092959890939650565b600060208284031215610c4b57610c4a61094f565b5b600082013567ffffffffffffffff811115610c6957610c68610954565b5b610c7584828501610a71565b91505092915050565b600081519050919050565b600082825260208201905092915050565b60005b83811015610cb8578082015181840152602081019050610c9d565b60008484015250505050565b6000610ccf82610c7e565b610cd98185610c89565b9350610ce9818560208601610c9a565b610cf281610963565b840191505092915050565b600081519050919050565b600082825260208201905092915050565b6000819050602082019050919050565b6000819050919050565b610d3c81610d29565b82525050565b600082825260208201905092915050565b6000610d5e82610c7e565b610d688185610d42565b9350610d78818560208601610c9a565b610d8181610963565b840191505092915050565b60008115159050919050565b610da181610d8c565b82525050565b600060a083016000830151610dbf6000860182610d33565b5060208301518482036020860152610dd78282610d53565b91505060408301518482036040860152610df18282610d53565b91505060608301518482036060860152610e0b8282610d53565b9150506080830151610e206080860182610d98565b508091505092915050565b6000610e378383610da7565b905092915050565b6000602082019050919050565b6000610e5782610cfd565b610e618185610d08565b935083602082028501610e7385610d19565b8060005b85811015610eaf5784840389528151610e908582610e2b565b9450610e9b83610e3f565b925060208a01995050600181019050610e77565b50829750879550505050505092915050565b600060c0820190508181036000830152610edb8189610cc4565b90508181036020830152610eef8188610cc4565b90508181036040830152610f038187610cc4565b90508181036060830152610f178186610cc4565b90508181036080830152610f2b8185610cc4565b905081810360a0830152610f3f8184610e4c565b9050979650505050505050565b600073ffffffffffffffffffffffffffffffffffffffff82169050919050565b6000610f7782610f4c565b9050919050565b610f8781610f6c565b82525050565b6000602082019050610fa26000830184610f7e565b92915050565b610fb181610d8c565b8114610fbc57600080fd5b50565b600081359050610fce81610fa8565b92915050565b600080600080600060a08688031215610ff057610fef61094f565b5b600086013567ffffffffffffffff81111561100e5761100d610954565b5b61101a88828901610a71565b955050602086013567ffffffffffffffff81111561103b5761103a610954565b5b61104788828901610a71565b945050604086013567ffffffffffffffff81111561106857611067610954565b5b61107488828901610a71565b935050606086013567ffffffffffffffff81111561109557611094610954565b5b6110a188828901610a71565b92505060806110b288828901610fbf565b9150509295509295909350565b600081905092915050565b60006110d582610c7e565b6110df81856110bf565b93506110ef818560208601610c9a565b80840191505092915050565b600061110782846110ca565b915081905092915050565b7f4e487b7100000000000000000000000000000000000000000000000000000000600052602260045260246000fd5b6000600282049050600182168061115957607f821691505b60208210810361116c5761116b611112565b5b50919050565b60008190508160005260206000209050919050565b60006020601f8301049050919050565b600082821b905092915050565b6000600883026111d47fffffffffffffffffffffffffffffffffffffffffffffffffffffffffffffffff82611197565b6111de8683611197565b95508019841693508086168417925050509392505050565b6000819050919050565b600061121b61121661121184610d29565b6111f6565b610d29565b9050919050565b6000819050919050565b61123583611200565b61124961124182611222565b8484546111a4565b825550505050565b600090565b61125e611251565b61126981848461122c565b505050565b5b8181101561128d57611282600082611256565b60018101905061126f565b5050565b601f8211156112d2576112a381611172565b6112ac84611187565b810160208510156112bb578190505b6112cf6112c785611187565b83018261126e565b50505b505050565b600082821c905092915050565b60006112f5600019846008026112d7565b1980831691505092915050565b600061130e83836112e4565b9150826002028217905092915050565b61132782610c7e565b67ffffffffffffffff8111156113405761133f610974565b5b61134a8254611141565b611355828285611291565b600060209050601f8311600181146113885760008415611376578287015190505b6113808582611302565b8655506113e8565b601f19841661139686611172565b60005b828110156113be57848901518255600182019150602085019450602081019050611399565b868310156113db57848901516113d7601f8916826112e4565b8355505b6001600288020188555050505b505050505050565b7f4e487b7100000000000000000000000000000000000000000000000000000000600052601160045260246000fd5b600061142a82610d29565b915061143583610d29565b925082820190508082111561144d5761144c6113f0565b5b92915050565b7f4e487b7100000000000000000000000000000000000000000000000000000000600052603260045260246000fd5b600061148d82610d29565b91507fffffffffffffffffffffffffffffffffffffffffffffffffffffffffffffffff82036114bf576114be6113f0565b5b60018201905091905056fea26469706673582212207b579364a03e643f5be96e45731c24c7a5a07a5ae25bfd1893be88770881431e64736f6c63430008110033",
  "linkReferences": {},
  "deployedLinkReferences": {}
}